{
  "address": "0x5FbDB2315678afecb367f032d93F642f64180aa3",
  "abi": [
    {
      "inputs": [],
      "stateMutability": "nonpayable",
      "type": "constructor"
    },
    {
      "anonymous": false,
      "inputs": [
        {
          "indexed": true,
          "internalType": "address",
          "name": "owner",
          "type": "address"
        },
        {
          "indexed": true,
          "internalType": "address",
          "name": "approved",
          "type": "address"
        },
        {
          "indexed": true,
          "internalType": "uint256",
          "name": "tokenId",
          "type": "uint256"
        }
      ],
      "name": "Approval",
      "type": "event"
    },
    {
      "anonymous": false,
      "inputs": [
        {
          "indexed": true,
          "internalType": "address",
          "name": "owner",
          "type": "address"
        },
        {
          "indexed": true,
          "internalType": "address",
          "name": "operator",
          "type": "address"
        },
        {
          "indexed": false,
          "internalType": "bool",
          "name": "approved",
          "type": "bool"
        }
      ],
      "name": "ApprovalForAll",
      "type": "event"
    },
    {
      "anonymous": false,
      "inputs": [
        {
          "indexed": false,
          "internalType": "string",
          "name": "message",
          "type": "string"
        }
      ],
      "name": "LogMessage",
      "type": "event"
    },
    {
      "anonymous": false,
      "inputs": [
        {
          "indexed": true,
          "internalType": "address",
          "name": "from",
          "type": "address"
        },
        {
          "indexed": true,
          "internalType": "address",
          "name": "to",
          "type": "address"
        },
        {
          "indexed": true,
          "internalType": "uint256",
          "name": "tokenId",
          "type": "uint256"
        }
      ],
      "name": "Transfer",
      "type": "event"
    },
    {
      "anonymous": false,
      "inputs": [
        {
          "indexed": false,
          "internalType": "string",
          "name": "name",
          "type": "string"
        },
        {
          "indexed": false,
          "internalType": "uint256",
          "name": "aadhar",
          "type": "uint256"
        },
        {
          "indexed": false,
          "internalType": "address",
          "name": "wallet",
          "type": "address"
        }
      ],
      "name": "UserDetails",
      "type": "event"
    },
    {
      "inputs": [],
      "name": "admin",
      "outputs": [
        {
          "internalType": "address",
          "name": "",
          "type": "address"
        }
      ],
      "stateMutability": "view",
      "type": "function"
    },
    {
      "inputs": [
        {
          "internalType": "address",
          "name": "to",
          "type": "address"
        },
        {
          "internalType": "uint256",
          "name": "tokenId",
          "type": "uint256"
        }
      ],
      "name": "approve",
      "outputs": [],
      "stateMutability": "nonpayable",
      "type": "function"
    },
    {
      "inputs": [
        {
          "internalType": "address",
          "name": "owner",
          "type": "address"
        }
      ],
      "name": "balanceOf",
      "outputs": [
        {
          "internalType": "uint256",
          "name": "",
          "type": "uint256"
        }
      ],
      "stateMutability": "view",
      "type": "function"
    },
    {
      "inputs": [
        {
          "internalType": "string",
          "name": "name",
          "type": "string"
        },
        {
          "internalType": "uint256",
          "name": "aadhar",
          "type": "uint256"
        },
        {
          "internalType": "address",
          "name": "userWallet",
          "type": "address"
        }
      ],
      "name": "createUser",
      "outputs": [],
      "stateMutability": "nonpayable",
      "type": "function"
    },
    {
      "inputs": [
        {
          "internalType": "address",
          "name": "userWallet",
          "type": "address"
        }
      ],
      "name": "deleteUser",
      "outputs": [],
      "stateMutability": "nonpayable",
      "type": "function"
    },
    {
      "inputs": [
        {
          "internalType": "address",
          "name": "target",
          "type": "address"
        }
      ],
      "name": "deleteUserAddress",
      "outputs": [],
      "stateMutability": "nonpayable",
      "type": "function"
    },
    {
      "inputs": [],
      "name": "getAllUsers",
      "outputs": [],
      "stateMutability": "nonpayable",
      "type": "function"
    },
    {
      "inputs": [
        {
          "internalType": "uint256",
          "name": "tokenId",
          "type": "uint256"
        }
      ],
      "name": "getApproved",
      "outputs": [
        {
          "internalType": "address",
          "name": "",
          "type": "address"
        }
      ],
      "stateMutability": "view",
      "type": "function"
    },
    {
      "inputs": [
        {
          "internalType": "uint256",
          "name": "tokenId",
          "type": "uint256"
        }
      ],
      "name": "getOwnerName",
      "outputs": [
        {
          "internalType": "address",
          "name": "",
          "type": "address"
        },
        {
          "internalType": "string",
          "name": "",
          "type": "string"
        }
      ],
      "stateMutability": "view",
      "type": "function"
    },
    {
      "inputs": [
        {
          "internalType": "address",
          "name": "owner",
          "type": "address"
        },
        {
          "internalType": "address",
          "name": "operator",
          "type": "address"
        }
      ],
      "name": "isApprovedForAll",
      "outputs": [
        {
          "internalType": "bool",
          "name": "",
          "type": "bool"
        }
      ],
      "stateMutability": "view",
      "type": "function"
    },
    {
      "inputs": [
        {
          "internalType": "uint256",
          "name": "",
          "type": "uint256"
        }
      ],
      "name": "keys",
      "outputs": [
        {
          "internalType": "address",
          "name": "",
          "type": "address"
        }
      ],
      "stateMutability": "view",
      "type": "function"
    },
    {
      "inputs": [
        {
          "internalType": "address",
          "name": "to",
          "type": "address"
        },
        {
          "internalType": "uint256",
          "name": "tokenId",
          "type": "uint256"
        }
      ],
      "name": "mint",
      "outputs": [],
      "stateMutability": "nonpayable",
      "type": "function"
    },
    {
      "inputs": [],
      "name": "name",
      "outputs": [
        {
          "internalType": "string",
          "name": "",
          "type": "string"
        }
      ],
      "stateMutability": "view",
      "type": "function"
    },
    {
      "inputs": [
        {
          "internalType": "uint256",
          "name": "tokenId",
          "type": "uint256"
        }
      ],
      "name": "ownerOf",
      "outputs": [
        {
          "internalType": "address",
          "name": "",
          "type": "address"
        }
      ],
      "stateMutability": "view",
      "type": "function"
    },
    {
      "inputs": [],
      "name": "registerLand",
      "outputs": [],
      "stateMutability": "nonpayable",
      "type": "function"
    },
    {
      "inputs": [
        {
          "internalType": "address",
          "name": "from",
          "type": "address"
        },
        {
          "internalType": "address",
          "name": "to",
          "type": "address"
        },
        {
          "internalType": "uint256",
          "name": "tokenId",
          "type": "uint256"
        }
      ],
      "name": "safeTransferFrom",
      "outputs": [],
      "stateMutability": "nonpayable",
      "type": "function"
    },
    {
      "inputs": [
        {
          "internalType": "address",
          "name": "from",
          "type": "address"
        },
        {
          "internalType": "address",
          "name": "to",
          "type": "address"
        },
        {
          "internalType": "uint256",
          "name": "tokenId",
          "type": "uint256"
        },
        {
          "internalType": "bytes",
          "name": "data",
          "type": "bytes"
        }
      ],
      "name": "safeTransferFrom",
      "outputs": [],
      "stateMutability": "nonpayable",
      "type": "function"
    },
    {
      "inputs": [
        {
          "internalType": "address",
          "name": "operator",
          "type": "address"
        },
        {
          "internalType": "bool",
          "name": "approved",
          "type": "bool"
        }
      ],
      "name": "setApprovalForAll",
      "outputs": [],
      "stateMutability": "nonpayable",
      "type": "function"
    },
    {
      "inputs": [
        {
          "internalType": "bytes4",
          "name": "interfaceId",
          "type": "bytes4"
        }
      ],
      "name": "supportsInterface",
      "outputs": [
        {
          "internalType": "bool",
          "name": "",
          "type": "bool"
        }
      ],
      "stateMutability": "view",
      "type": "function"
    },
    {
      "inputs": [],
      "name": "symbol",
      "outputs": [
        {
          "internalType": "string",
          "name": "",
          "type": "string"
        }
      ],
      "stateMutability": "view",
      "type": "function"
    },
    {
      "inputs": [
        {
          "internalType": "uint256",
          "name": "tokenId",
          "type": "uint256"
        }
      ],
      "name": "tokenURI",
      "outputs": [
        {
          "internalType": "string",
          "name": "",
          "type": "string"
        }
      ],
      "stateMutability": "view",
      "type": "function"
    },
    {
      "inputs": [
        {
          "internalType": "address",
          "name": "from",
          "type": "address"
        },
        {
          "internalType": "address",
          "name": "to",
          "type": "address"
        },
        {
          "internalType": "uint256",
          "name": "tokenId",
          "type": "uint256"
        }
      ],
      "name": "transfer",
      "outputs": [],
      "stateMutability": "nonpayable",
      "type": "function"
    },
    {
      "inputs": [
        {
          "internalType": "address",
          "name": "from",
          "type": "address"
        },
        {
          "internalType": "address",
          "name": "to",
          "type": "address"
        },
        {
          "internalType": "uint256",
          "name": "tokenId",
          "type": "uint256"
        }
      ],
      "name": "transferFrom",
      "outputs": [],
      "stateMutability": "nonpayable",
      "type": "function"
    },
    {
      "inputs": [
        {
          "internalType": "address",
          "name": "",
          "type": "address"
        }
      ],
      "name": "users",
      "outputs": [
        {
          "internalType": "string",
          "name": "name",
          "type": "string"
        },
        {
          "internalType": "uint256",
          "name": "aadhar",
          "type": "uint256"
        },
        {
          "internalType": "address",
          "name": "wallet",
          "type": "address"
        }
      ],
      "stateMutability": "view",
      "type": "function"
    }
  ],
  "transactionHash": "0x348d26963bc6f55d7825fb7cd3b7bdfd8e0169c4f5d8c15309339b1b307e38ef",
  "args": [],
  "numDeployments": 1,
  "solcInputHash": "3caf4e88eb3b850983db5f0ea6dff59e",
  "bytecode": "0x60806040523480156200001157600080fd5b506040518060400160405280600581526020017f4d794e46540000000000000000000000000000000000000000000000000000008152506040518060400160405280600381526020017f4e46540000000000000000000000000000000000000000000000000000000000815250816000908051906020019062000096929190620000f9565b508060019080519060200190620000af929190620000f9565b50505033600860006101000a81548173ffffffffffffffffffffffffffffffffffffffff021916908373ffffffffffffffffffffffffffffffffffffffff1602179055506200020e565b8280546200010790620001a9565b90600052602060002090601f0160209004810192826200012b576000855562000177565b82601f106200014657805160ff191683800117855562000177565b8280016001018555821562000177579182015b828111156200017657825182559160200191906001019062000159565b5b5090506200018691906200018a565b5090565b5b80821115620001a55760008160009055506001016200018b565b5090565b60006002820490506001821680620001c257607f821691505b60208210811415620001d957620001d8620001df565b5b50919050565b7f4e487b7100000000000000000000000000000000000000000000000000000000600052602260045260246000fd5b613d4b806200021e6000396000f3fe608060405234801561001057600080fd5b50600436106101575760003560e01c80636352211e116100c3578063b88d4fde1161007c578063b88d4fde146103d5578063beabacc8146103f1578063c87b56dd1461040d578063e2842d791461043d578063e985e9c514610447578063f851a4401461047757610157565b80636352211e146102d857806370a08231146103085780638230c4fb1461033857806395d89b4114610369578063a22cb46514610387578063a87430ba146103a357610157565b80630cb6aaf1116101155780630cb6aaf11461021c57806323b872dd1461024c57806340c10f191461026857806342842e0e14610284578063518b10f1146102a05780635c60f226146102bc57610157565b8062b8c5b91461015c57806301ffc9a71461016657806302f562c91461019657806306fdde03146101b2578063081812fc146101d0578063095ea7b314610200575b600080fd5b610164610495565b005b610180600480360381019061017b9190612b5f565b610569565b60405161018d91906130bf565b60405180910390f35b6101b060048036038101906101ab9190612bb9565b61064b565b005b6101ba6108bd565b6040516101c791906130da565b60405180910390f35b6101ea60048036038101906101e59190612c28565b61094f565b6040516101f79190613028565b60405180910390f35b61021a60048036038101906102159190612b1f565b610995565b005b61023660048036038101906102319190612c28565b610aad565b6040516102439190613028565b60405180910390f35b61026660048036038101906102619190612a09565b610aec565b005b610282600480360381019061027d9190612b1f565b610b4c565b005b61029e60048036038101906102999190612a09565b610c2c565b005b6102ba60048036038101906102b5919061299c565b610c4c565b005b6102d660048036038101906102d1919061299c565b610ddd565b005b6102f260048036038101906102ed9190612c28565b611001565b6040516102ff9190613028565b60405180910390f35b610322600480360381019061031d919061299c565b611088565b60405161032f91906133da565b60405180910390f35b610352600480360381019061034d9190612c28565b611140565b60405161036092919061308f565b60405180910390f35b6103716112ea565b60405161037e91906130da565b60405180910390f35b6103a1600480360381019061039c9190612adf565b61137c565b005b6103bd60048036038101906103b8919061299c565b611392565b6040516103cc939291906130fc565b60405180910390f35b6103ef60048036038101906103ea9190612a5c565b611464565b005b61040b60048036038101906104069190612a09565b6114c6565b005b61042760048036038101906104229190612c28565b6116f0565b60405161043491906130da565b60405180910390f35b610445611758565b005b610461600480360381019061045c91906129c9565b611944565b60405161046e91906130bf565b60405180910390f35b61047f6119d8565b60405161048c9190613028565b60405180910390f35b600073ffffffffffffffffffffffffffffffffffffffff16600660003373ffffffffffffffffffffffffffffffffffffffff1673ffffffffffffffffffffffffffffffffffffffff16815260200190815260200160002060020160009054906101000a900473ffffffffffffffffffffffffffffffffffffffff1673ffffffffffffffffffffffffffffffffffffffff161415610567576040517f08c379a000000000000000000000000000000000000000000000000000000000815260040161055e9061329a565b60405180910390fd5b565b60007f80ac58cd000000000000000000000000000000000000000000000000000000007bffffffffffffffffffffffffffffffffffffffffffffffffffffffff1916827bffffffffffffffffffffffffffffffffffffffffffffffffffffffff1916148061063457507f5b5e139f000000000000000000000000000000000000000000000000000000007bffffffffffffffffffffffffffffffffffffffffffffffffffffffff1916827bffffffffffffffffffffffffffffffffffffffffffffffffffffffff1916145b806106445750610643826119fe565b5b9050919050565b600860009054906101000a900473ffffffffffffffffffffffffffffffffffffffff1673ffffffffffffffffffffffffffffffffffffffff163373ffffffffffffffffffffffffffffffffffffffff16146106db576040517f08c379a00000000000000000000000000000000000000000000000000000000081526004016106d29061331a565b60405180910390fd5b600073ffffffffffffffffffffffffffffffffffffffff16600660008373ffffffffffffffffffffffffffffffffffffffff1673ffffffffffffffffffffffffffffffffffffffff16815260200190815260200160002060020160009054906101000a900473ffffffffffffffffffffffffffffffffffffffff1673ffffffffffffffffffffffffffffffffffffffff16146107ac576040517f08c379a00000000000000000000000000000000000000000000000000000000081526004016107a39061325a565b60405180910390fd5b6000600660008373ffffffffffffffffffffffffffffffffffffffff1673ffffffffffffffffffffffffffffffffffffffff168152602001908152602001600020905083816000019080519060200190610807929190612770565b50828160010181905550818160020160006101000a81548173ffffffffffffffffffffffffffffffffffffffff021916908373ffffffffffffffffffffffffffffffffffffffff1602179055506007829080600181540180825580915050600190039060005260206000200160009091909190916101000a81548173ffffffffffffffffffffffffffffffffffffffff021916908373ffffffffffffffffffffffffffffffffffffffff16021790555050505050565b6060600080546108cc906135a9565b80601f01602080910402602001604051908101604052809291908181526020018280546108f8906135a9565b80156109455780601f1061091a57610100808354040283529160200191610945565b820191906000526020600020905b81548152906001019060200180831161092857829003601f168201915b5050505050905090565b600061095a82611a68565b6004600083815260200190815260200160002060009054906101000a900473ffffffffffffffffffffffffffffffffffffffff169050919050565b60006109a082611001565b90508073ffffffffffffffffffffffffffffffffffffffff168373ffffffffffffffffffffffffffffffffffffffff161415610a11576040517f08c379a0000000000000000000000000000000000000000000000000000000008152600401610a08906132fa565b60405180910390fd5b8073ffffffffffffffffffffffffffffffffffffffff16610a30611ab3565b73ffffffffffffffffffffffffffffffffffffffff161480610a5f5750610a5e81610a59611ab3565b611944565b5b610a9e576040517f08c379a0000000000000000000000000000000000000000000000000000000008152600401610a959061337a565b60405180910390fd5b610aa88383611abb565b505050565b60078181548110610abd57600080fd5b906000526020600020016000915054906101000a900473ffffffffffffffffffffffffffffffffffffffff1681565b610afd610af7611ab3565b82611b74565b610b3c576040517f08c379a0000000000000000000000000000000000000000000000000000000008152600401610b339061313a565b60405180910390fd5b610b47838383611c09565b505050565b600073ffffffffffffffffffffffffffffffffffffffff16600660008473ffffffffffffffffffffffffffffffffffffffff1673ffffffffffffffffffffffffffffffffffffffff16815260200190815260200160002060020160009054906101000a900473ffffffffffffffffffffffffffffffffffffffff1673ffffffffffffffffffffffffffffffffffffffff161415610c1e576040517f08c379a0000000000000000000000000000000000000000000000000000000008152600401610c159061339a565b60405180910390fd5b610c288282611f03565b5050565b610c4783838360405180602001604052806000815250611464565b505050565b60005b600780549050811015610dd9578173ffffffffffffffffffffffffffffffffffffffff1660078281548110610c8757610c86613711565b5b9060005260206000200160009054906101000a900473ffffffffffffffffffffffffffffffffffffffff1673ffffffffffffffffffffffffffffffffffffffff161415610dc65760076001600780549050610ce291906134bf565b81548110610cf357610cf2613711565b5b9060005260206000200160009054906101000a900473ffffffffffffffffffffffffffffffffffffffff1660078281548110610d3257610d31613711565b5b9060005260206000200160006101000a81548173ffffffffffffffffffffffffffffffffffffffff021916908373ffffffffffffffffffffffffffffffffffffffff1602179055506007805480610d8c57610d8b6136e2565b5b6001900381819060005260206000200160006101000a81549073ffffffffffffffffffffffffffffffffffffffff02191690559055610dd9565b8080610dd19061360c565b915050610c4f565b5050565b600860009054906101000a900473ffffffffffffffffffffffffffffffffffffffff1673ffffffffffffffffffffffffffffffffffffffff163373ffffffffffffffffffffffffffffffffffffffff1614610e6d576040517f08c379a0000000000000000000000000000000000000000000000000000000008152600401610e649061331a565b60405180910390fd5b600073ffffffffffffffffffffffffffffffffffffffff16600660008373ffffffffffffffffffffffffffffffffffffffff1673ffffffffffffffffffffffffffffffffffffffff16815260200190815260200160002060020160009054906101000a900473ffffffffffffffffffffffffffffffffffffffff1673ffffffffffffffffffffffffffffffffffffffff161415610f3f576040517f08c379a0000000000000000000000000000000000000000000000000000000008152600401610f369061333a565b60405180910390fd5b600660008273ffffffffffffffffffffffffffffffffffffffff1673ffffffffffffffffffffffffffffffffffffffff16815260200190815260200160002060008082016000610f8f91906127f6565b60018201600090556002820160006101000a81549073ffffffffffffffffffffffffffffffffffffffff02191690555050610fc981610c4c565b7f96561394bac381230de4649200e8831afcab1f451881bbade9ef209f6dd30480604051610ff69061317a565b60405180910390a150565b60008061100d83612121565b9050600073ffffffffffffffffffffffffffffffffffffffff168173ffffffffffffffffffffffffffffffffffffffff16141561107f576040517f08c379a0000000000000000000000000000000000000000000000000000000008152600401611076906132da565b60405180910390fd5b80915050919050565b60008073ffffffffffffffffffffffffffffffffffffffff168273ffffffffffffffffffffffffffffffffffffffff1614156110f9576040517f08c379a00000000000000000000000000000000000000000000000000000000081526004016110f09061323a565b60405180910390fd5b600360008373ffffffffffffffffffffffffffffffffffffffff1673ffffffffffffffffffffffffffffffffffffffff168152602001908152602001600020549050919050565b6000606061114d8361215e565b61118c576040517f08c379a00000000000000000000000000000000000000000000000000000000081526004016111839061321a565b60405180910390fd5b600061119784611001565b90506000600660008373ffffffffffffffffffffffffffffffffffffffff1673ffffffffffffffffffffffffffffffffffffffff1681526020019081526020016000206040518060600160405290816000820180546111f5906135a9565b80601f0160208091040260200160405190810160405280929190818152602001828054611221906135a9565b801561126e5780601f106112435761010080835404028352916020019161126e565b820191906000526020600020905b81548152906001019060200180831161125157829003601f168201915b50505050508152602001600182015481526020016002820160009054906101000a900473ffffffffffffffffffffffffffffffffffffffff1673ffffffffffffffffffffffffffffffffffffffff1673ffffffffffffffffffffffffffffffffffffffff16815250509050818160000151935093505050915091565b6060600180546112f9906135a9565b80601f0160208091040260200160405190810160405280929190818152602001828054611325906135a9565b80156113725780601f1061134757610100808354040283529160200191611372565b820191906000526020600020905b81548152906001019060200180831161135557829003601f168201915b5050505050905090565b61138e611387611ab3565b838361219f565b5050565b60066020528060005260406000206000915090508060000180546113b5906135a9565b80601f01602080910402602001604051908101604052809291908181526020018280546113e1906135a9565b801561142e5780601f106114035761010080835404028352916020019161142e565b820191906000526020600020905b81548152906001019060200180831161141157829003601f168201915b5050505050908060010154908060020160009054906101000a900473ffffffffffffffffffffffffffffffffffffffff16905083565b61147561146f611ab3565b83611b74565b6114b4576040517f08c379a00000000000000000000000000000000000000000000000000000000081526004016114ab9061313a565b60405180910390fd5b6114c08484848461230c565b50505050565b8273ffffffffffffffffffffffffffffffffffffffff166114e682611001565b73ffffffffffffffffffffffffffffffffffffffff161461153c576040517f08c379a0000000000000000000000000000000000000000000000000000000008152600401611533906132ba565b60405180910390fd5b600073ffffffffffffffffffffffffffffffffffffffff16600660008573ffffffffffffffffffffffffffffffffffffffff1673ffffffffffffffffffffffffffffffffffffffff16815260200190815260200160002060020160009054906101000a900473ffffffffffffffffffffffffffffffffffffffff1673ffffffffffffffffffffffffffffffffffffffff16141561160e576040517f08c379a0000000000000000000000000000000000000000000000000000000008152600401611605906133ba565b60405180910390fd5b600073ffffffffffffffffffffffffffffffffffffffff16600660008473ffffffffffffffffffffffffffffffffffffffff1673ffffffffffffffffffffffffffffffffffffffff16815260200190815260200160002060020160009054906101000a900473ffffffffffffffffffffffffffffffffffffffff1673ffffffffffffffffffffffffffffffffffffffff1614156116e0576040517f08c379a00000000000000000000000000000000000000000000000000000000081526004016116d79061335a565b60405180910390fd5b6116eb838383610c2c565b505050565b60606116fb82611a68565b6000611705612368565b905060008151116117255760405180602001604052806000815250611750565b8061172f8461237f565b604051602001611740929190613004565b6040516020818303038152906040525b915050919050565b60005b600780549050811015611941576000600660006007848154811061178257611781613711565b5b9060005260206000200160009054906101000a900473ffffffffffffffffffffffffffffffffffffffff1673ffffffffffffffffffffffffffffffffffffffff1673ffffffffffffffffffffffffffffffffffffffff168152602001908152602001600020604051806060016040529081600082018054611802906135a9565b80601f016020809104026020016040519081016040528092919081815260200182805461182e906135a9565b801561187b5780601f106118505761010080835404028352916020019161187b565b820191906000526020600020905b81548152906001019060200180831161185e57829003601f168201915b50505050508152602001600182015481526020016002820160009054906101000a900473ffffffffffffffffffffffffffffffffffffffff1673ffffffffffffffffffffffffffffffffffffffff1673ffffffffffffffffffffffffffffffffffffffff168152505090507f18a12eea71a375c6f3dc2f1a6de0d69758c2563f08e5296b83e23f9fdeeb3588816000015182602001518360400151604051611925939291906130fc565b60405180910390a15080806119399061360c565b91505061175b565b50565b6000600560008473ffffffffffffffffffffffffffffffffffffffff1673ffffffffffffffffffffffffffffffffffffffff16815260200190815260200160002060008373ffffffffffffffffffffffffffffffffffffffff1673ffffffffffffffffffffffffffffffffffffffff16815260200190815260200160002060009054906101000a900460ff16905092915050565b600860009054906101000a900473ffffffffffffffffffffffffffffffffffffffff1681565b60007f01ffc9a7000000000000000000000000000000000000000000000000000000007bffffffffffffffffffffffffffffffffffffffffffffffffffffffff1916827bffffffffffffffffffffffffffffffffffffffffffffffffffffffff1916149050919050565b611a718161215e565b611ab0576040517f08c379a0000000000000000000000000000000000000000000000000000000008152600401611aa7906132da565b60405180910390fd5b50565b600033905090565b816004600083815260200190815260200160002060006101000a81548173ffffffffffffffffffffffffffffffffffffffff021916908373ffffffffffffffffffffffffffffffffffffffff160217905550808273ffffffffffffffffffffffffffffffffffffffff16611b2e83611001565b73ffffffffffffffffffffffffffffffffffffffff167f8c5be1e5ebec7d5bd14f71427d1e84f3dd0314c0f7b2291e5b200ac8c7c3b92560405160405180910390a45050565b600080611b8083611001565b90508073ffffffffffffffffffffffffffffffffffffffff168473ffffffffffffffffffffffffffffffffffffffff161480611bc25750611bc18185611944565b5b80611c0057508373ffffffffffffffffffffffffffffffffffffffff16611be88461094f565b73ffffffffffffffffffffffffffffffffffffffff16145b91505092915050565b8273ffffffffffffffffffffffffffffffffffffffff16611c2982611001565b73ffffffffffffffffffffffffffffffffffffffff1614611c7f576040517f08c379a0000000000000000000000000000000000000000000000000000000008152600401611c769061319a565b60405180910390fd5b600073ffffffffffffffffffffffffffffffffffffffff168273ffffffffffffffffffffffffffffffffffffffff161415611cef576040517f08c379a0000000000000000000000000000000000000000000000000000000008152600401611ce6906131da565b60405180910390fd5b611cfc8383836001612457565b8273ffffffffffffffffffffffffffffffffffffffff16611d1c82611001565b73ffffffffffffffffffffffffffffffffffffffff1614611d72576040517f08c379a0000000000000000000000000000000000000000000000000000000008152600401611d699061319a565b60405180910390fd5b6004600082815260200190815260200160002060006101000a81549073ffffffffffffffffffffffffffffffffffffffff02191690556001600360008573ffffffffffffffffffffffffffffffffffffffff1673ffffffffffffffffffffffffffffffffffffffff168152602001908152602001600020600082825403925050819055506001600360008473ffffffffffffffffffffffffffffffffffffffff1673ffffffffffffffffffffffffffffffffffffffff16815260200190815260200160002060008282540192505081905550816002600083815260200190815260200160002060006101000a81548173ffffffffffffffffffffffffffffffffffffffff021916908373ffffffffffffffffffffffffffffffffffffffff160217905550808273ffffffffffffffffffffffffffffffffffffffff168473ffffffffffffffffffffffffffffffffffffffff167fddf252ad1be2c89b69c2b068fc378daa952ba7f163c4a11628f55a4df523b3ef60405160405180910390a4611efe838383600161245d565b505050565b600073ffffffffffffffffffffffffffffffffffffffff168273ffffffffffffffffffffffffffffffffffffffff161415611f73576040517f08c379a0000000000000000000000000000000000000000000000000000000008152600401611f6a9061327a565b60405180910390fd5b611f7c8161215e565b15611fbc576040517f08c379a0000000000000000000000000000000000000000000000000000000008152600401611fb3906131ba565b60405180910390fd5b611fca600083836001612457565b611fd38161215e565b15612013576040517f08c379a000000000000000000000000000000000000000000000000000000000815260040161200a906131ba565b60405180910390fd5b6001600360008473ffffffffffffffffffffffffffffffffffffffff1673ffffffffffffffffffffffffffffffffffffffff16815260200190815260200160002060008282540192505081905550816002600083815260200190815260200160002060006101000a81548173ffffffffffffffffffffffffffffffffffffffff021916908373ffffffffffffffffffffffffffffffffffffffff160217905550808273ffffffffffffffffffffffffffffffffffffffff16600073ffffffffffffffffffffffffffffffffffffffff167fddf252ad1be2c89b69c2b068fc378daa952ba7f163c4a11628f55a4df523b3ef60405160405180910390a461211d60008383600161245d565b5050565b60006002600083815260200190815260200160002060009054906101000a900473ffffffffffffffffffffffffffffffffffffffff169050919050565b60008073ffffffffffffffffffffffffffffffffffffffff1661218083612121565b73ffffffffffffffffffffffffffffffffffffffff1614159050919050565b8173ffffffffffffffffffffffffffffffffffffffff168373ffffffffffffffffffffffffffffffffffffffff16141561220e576040517f08c379a0000000000000000000000000000000000000000000000000000000008152600401612205906131fa565b60405180910390fd5b80600560008573ffffffffffffffffffffffffffffffffffffffff1673ffffffffffffffffffffffffffffffffffffffff16815260200190815260200160002060008473ffffffffffffffffffffffffffffffffffffffff1673ffffffffffffffffffffffffffffffffffffffff16815260200190815260200160002060006101000a81548160ff0219169083151502179055508173ffffffffffffffffffffffffffffffffffffffff168373ffffffffffffffffffffffffffffffffffffffff167f17307eab39ab6107e8899845ad3d59bd9653f200f220920489ca2b5937696c31836040516122ff91906130bf565b60405180910390a3505050565b612317848484611c09565b61232384848484612463565b612362576040517f08c379a00000000000000000000000000000000000000000000000000000000081526004016123599061315a565b60405180910390fd5b50505050565b606060405180602001604052806000815250905090565b60606000600161238e846125fa565b01905060008167ffffffffffffffff8111156123ad576123ac613740565b5b6040519080825280601f01601f1916602001820160405280156123df5781602001600182028036833780820191505090505b509050600082602001820190505b60011561244c578080600190039150507f3031323334353637383961626364656600000000000000000000000000000000600a86061a8153600a858161243657612435613684565b5b04945060008514156124475761244c565b6123ed565b819350505050919050565b50505050565b50505050565b60006124848473ffffffffffffffffffffffffffffffffffffffff1661274d565b156125ed578373ffffffffffffffffffffffffffffffffffffffff1663150b7a026124ad611ab3565b8786866040518563ffffffff1660e01b81526004016124cf9493929190613043565b602060405180830381600087803b1580156124e957600080fd5b505af192505050801561251a57506040513d601f19601f820116820180604052508101906125179190612b8c565b60015b61259d573d806000811461254a576040519150601f19603f3d011682016040523d82523d6000602084013e61254f565b606091505b50600081511415612595576040517f08c379a000000000000000000000000000000000000000000000000000000000815260040161258c9061315a565b60405180910390fd5b805181602001fd5b63150b7a0260e01b7bffffffffffffffffffffffffffffffffffffffffffffffffffffffff1916817bffffffffffffffffffffffffffffffffffffffffffffffffffffffff1916149150506125f2565b600190505b949350505050565b600080600090507a184f03e93ff9f4daa797ed6e38ed64bf6a1f0100000000000000008310612658577a184f03e93ff9f4daa797ed6e38ed64bf6a1f010000000000000000838161264e5761264d613684565b5b0492506040810190505b6d04ee2d6d415b85acef81000000008310612695576d04ee2d6d415b85acef8100000000838161268b5761268a613684565b5b0492506020810190505b662386f26fc1000083106126c457662386f26fc1000083816126ba576126b9613684565b5b0492506010810190505b6305f5e10083106126ed576305f5e10083816126e3576126e2613684565b5b0492506008810190505b612710831061271257612710838161270857612707613684565b5b0492506004810190505b60648310612735576064838161272b5761272a613684565b5b0492506002810190505b600a8310612744576001810190505b80915050919050565b6000808273ffffffffffffffffffffffffffffffffffffffff163b119050919050565b82805461277c906135a9565b90600052602060002090601f01602090048101928261279e57600085556127e5565b82601f106127b757805160ff19168380011785556127e5565b828001600101855582156127e5579182015b828111156127e45782518255916020019190600101906127c9565b5b5090506127f29190612836565b5090565b508054612802906135a9565b6000825580601f106128145750612833565b601f0160209004906000526020600020908101906128329190612836565b5b50565b5b8082111561284f576000816000905550600101612837565b5090565b60006128666128618461341a565b6133f5565b90508281526020810184848401111561288257612881613774565b5b61288d848285613567565b509392505050565b60006128a86128a38461344b565b6133f5565b9050828152602081018484840111156128c4576128c3613774565b5b6128cf848285613567565b509392505050565b6000813590506128e681613cb9565b92915050565b6000813590506128fb81613cd0565b92915050565b60008135905061291081613ce7565b92915050565b60008151905061292581613ce7565b92915050565b600082601f8301126129405761293f61376f565b5b8135612950848260208601612853565b91505092915050565b600082601f83011261296e5761296d61376f565b5b813561297e848260208601612895565b91505092915050565b60008135905061299681613cfe565b92915050565b6000602082840312156129b2576129b161377e565b5b60006129c0848285016128d7565b91505092915050565b600080604083850312156129e0576129df61377e565b5b60006129ee858286016128d7565b92505060206129ff858286016128d7565b9150509250929050565b600080600060608486031215612a2257612a2161377e565b5b6000612a30868287016128d7565b9350506020612a41868287016128d7565b9250506040612a5286828701612987565b9150509250925092565b60008060008060808587031215612a7657612a7561377e565b5b6000612a84878288016128d7565b9450506020612a95878288016128d7565b9350506040612aa687828801612987565b925050606085013567ffffffffffffffff811115612ac757612ac6613779565b5b612ad38782880161292b565b91505092959194509250565b60008060408385031215612af657612af561377e565b5b6000612b04858286016128d7565b9250506020612b15858286016128ec565b9150509250929050565b60008060408385031215612b3657612b3561377e565b5b6000612b44858286016128d7565b9250506020612b5585828601612987565b9150509250929050565b600060208284031215612b7557612b7461377e565b5b6000612b8384828501612901565b91505092915050565b600060208284031215612ba257612ba161377e565b5b6000612bb084828501612916565b91505092915050565b600080600060608486031215612bd257612bd161377e565b5b600084013567ffffffffffffffff811115612bf057612bef613779565b5b612bfc86828701612959565b9350506020612c0d86828701612987565b9250506040612c1e868287016128d7565b9150509250925092565b600060208284031215612c3e57612c3d61377e565b5b6000612c4c84828501612987565b91505092915050565b612c5e816134f3565b82525050565b612c6d81613505565b82525050565b6000612c7e8261347c565b612c888185613492565b9350612c98818560208601613576565b612ca181613783565b840191505092915050565b6000612cb782613487565b612cc181856134a3565b9350612cd1818560208601613576565b612cda81613783565b840191505092915050565b6000612cf082613487565b612cfa81856134b4565b9350612d0a818560208601613576565b80840191505092915050565b6000612d23602d836134a3565b9150612d2e82613794565b604082019050919050565b6000612d466032836134a3565b9150612d51826137e3565b604082019050919050565b6000612d69601a836134a3565b9150612d7482613832565b602082019050919050565b6000612d8c6025836134a3565b9150612d978261385b565b604082019050919050565b6000612daf601c836134a3565b9150612dba826138aa565b602082019050919050565b6000612dd26024836134a3565b9150612ddd826138d3565b604082019050919050565b6000612df56019836134a3565b9150612e0082613922565b602082019050919050565b6000612e186014836134a3565b9150612e238261394b565b602082019050919050565b6000612e3b6029836134a3565b9150612e4682613974565b604082019050919050565b6000612e5e6013836134a3565b9150612e69826139c3565b602082019050919050565b6000612e816020836134a3565b9150612e8c826139ec565b602082019050919050565b6000612ea4602a836134a3565b9150612eaf82613a15565b604082019050919050565b6000612ec76021836134a3565b9150612ed282613a64565b604082019050919050565b6000612eea6018836134a3565b9150612ef582613ab3565b602082019050919050565b6000612f0d6021836134a3565b9150612f1882613adc565b604082019050919050565b6000612f306022836134a3565b9150612f3b82613b2b565b604082019050919050565b6000612f536013836134a3565b9150612f5e82613b7a565b602082019050919050565b6000612f766022836134a3565b9150612f8182613ba3565b604082019050919050565b6000612f99603d836134a3565b9150612fa482613bf2565b604082019050919050565b6000612fbc6033836134a3565b9150612fc782613c41565b604082019050919050565b6000612fdf6020836134a3565b9150612fea82613c90565b602082019050919050565b612ffe8161355d565b82525050565b60006130108285612ce5565b915061301c8284612ce5565b91508190509392505050565b600060208201905061303d6000830184612c55565b92915050565b60006080820190506130586000830187612c55565b6130656020830186612c55565b6130726040830185612ff5565b81810360608301526130848184612c73565b905095945050505050565b60006040820190506130a46000830185612c55565b81810360208301526130b68184612cac565b90509392505050565b60006020820190506130d46000830184612c64565b92915050565b600060208201905081810360008301526130f48184612cac565b905092915050565b600060608201905081810360008301526131168186612cac565b90506131256020830185612ff5565b6131326040830184612c55565b949350505050565b6000602082019050818103600083015261315381612d16565b9050919050565b6000602082019050818103600083015261317381612d39565b9050919050565b6000602082019050818103600083015261319381612d5c565b9050919050565b600060208201905081810360008301526131b381612d7f565b9050919050565b600060208201905081810360008301526131d381612da2565b9050919050565b600060208201905081810360008301526131f381612dc5565b9050919050565b6000602082019050818103600083015261321381612de8565b9050919050565b6000602082019050818103600083015261323381612e0b565b9050919050565b6000602082019050818103600083015261325381612e2e565b9050919050565b6000602082019050818103600083015261327381612e51565b9050919050565b6000602082019050818103600083015261329381612e74565b9050919050565b600060208201905081810360008301526132b381612e97565b9050919050565b600060208201905081810360008301526132d381612eba565b9050919050565b600060208201905081810360008301526132f381612edd565b9050919050565b6000602082019050818103600083015261331381612f00565b9050919050565b6000602082019050818103600083015261333381612f23565b9050919050565b6000602082019050818103600083015261335381612f46565b9050919050565b6000602082019050818103600083015261337381612f69565b9050919050565b6000602082019050818103600083015261339381612f8c565b9050919050565b600060208201905081810360008301526133b381612faf565b9050919050565b600060208201905081810360008301526133d381612fd2565b9050919050565b60006020820190506133ef6000830184612ff5565b92915050565b60006133ff613410565b905061340b82826135db565b919050565b6000604051905090565b600067ffffffffffffffff82111561343557613434613740565b5b61343e82613783565b9050602081019050919050565b600067ffffffffffffffff82111561346657613465613740565b5b61346f82613783565b9050602081019050919050565b600081519050919050565b600081519050919050565b600082825260208201905092915050565b600082825260208201905092915050565b600081905092915050565b60006134ca8261355d565b91506134d58361355d565b9250828210156134e8576134e7613655565b5b828203905092915050565b60006134fe8261353d565b9050919050565b60008115159050919050565b60007fffffffff0000000000000000000000000000000000000000000000000000000082169050919050565b600073ffffffffffffffffffffffffffffffffffffffff82169050919050565b6000819050919050565b82818337600083830152505050565b60005b83811015613594578082015181840152602081019050613579565b838111156135a3576000848401525b50505050565b600060028204905060018216806135c157607f821691505b602082108114156135d5576135d46136b3565b5b50919050565b6135e482613783565b810181811067ffffffffffffffff8211171561360357613602613740565b5b80604052505050565b60006136178261355d565b91507fffffffffffffffffffffffffffffffffffffffffffffffffffffffffffffffff82141561364a57613649613655565b5b600182019050919050565b7f4e487b7100000000000000000000000000000000000000000000000000000000600052601160045260246000fd5b7f4e487b7100000000000000000000000000000000000000000000000000000000600052601260045260246000fd5b7f4e487b7100000000000000000000000000000000000000000000000000000000600052602260045260246000fd5b7f4e487b7100000000000000000000000000000000000000000000000000000000600052603160045260246000fd5b7f4e487b7100000000000000000000000000000000000000000000000000000000600052603260045260246000fd5b7f4e487b7100000000000000000000000000000000000000000000000000000000600052604160045260246000fd5b600080fd5b600080fd5b600080fd5b600080fd5b6000601f19601f8301169050919050565b7f4552433732313a2063616c6c6572206973206e6f7420746f6b656e206f776e6560008201527f72206f7220617070726f76656400000000000000000000000000000000000000602082015250565b7f4552433732313a207472616e7366657220746f206e6f6e20455243373231526560008201527f63656976657220696d706c656d656e7465720000000000000000000000000000602082015250565b7f557365722064656c6574696f6e207375636365737366756c6c79000000000000600082015250565b7f4552433732313a207472616e736665722066726f6d20696e636f72726563742060008201527f6f776e6572000000000000000000000000000000000000000000000000000000602082015250565b7f4552433732313a20746f6b656e20616c7265616479206d696e74656400000000600082015250565b7f4552433732313a207472616e7366657220746f20746865207a65726f2061646460008201527f7265737300000000000000000000000000000000000000000000000000000000602082015250565b7f4552433732313a20617070726f766520746f2063616c6c657200000000000000600082015250565b7f546f6b656e20646f6573206e6f74206578697374000000000000000000000000600082015250565b7f4552433732313a2061646472657373207a65726f206973206e6f74206120766160008201527f6c6964206f776e65720000000000000000000000000000000000000000000000602082015250565b7f5573657220616c72656164792065786973747300000000000000000000000000600082015250565b7f4552433732313a206d696e7420746f20746865207a65726f2061646472657373600082015250565b7f4f6e6c79206578697374696e672075736572732063616e2063616c6c2074686960008201527f732066756e6374696f6e00000000000000000000000000000000000000000000602082015250565b7f596f7520617265206e6f7420746865206f776e6572206f662074686973204e4660008201527f5400000000000000000000000000000000000000000000000000000000000000602082015250565b7f4552433732313a20696e76616c696420746f6b656e2049440000000000000000600082015250565b7f4552433732313a20617070726f76616c20746f2063757272656e74206f776e6560008201527f7200000000000000000000000000000000000000000000000000000000000000602082015250565b7f4f6e6c792061646d696e2063616e20706572666f726d2074686973206163746960008201527f6f6e000000000000000000000000000000000000000000000000000000000000602082015250565b7f5573657220646f6573206e6f7420657869737400000000000000000000000000600082015250565b7f5265636569766572206973206e6f7420616e20617574686f72697a656420757360008201527f6572000000000000000000000000000000000000000000000000000000000000602082015250565b7f4552433732313a20617070726f76652063616c6c6572206973206e6f7420746f60008201527f6b656e206f776e6572206f7220617070726f76656420666f7220616c6c000000602082015250565b7f4f6e6c79206578697374696e672075736572732063616e20746f6b656e697a6560008201527f207468656972206c616e64206173204e46547300000000000000000000000000602082015250565b7f53656e646572206973206e6f7420616e20617574686f72697a65642075736572600082015250565b613cc2816134f3565b8114613ccd57600080fd5b50565b613cd981613505565b8114613ce457600080fd5b50565b613cf081613511565b8114613cfb57600080fd5b50565b613d078161355d565b8114613d1257600080fd5b5056fea264697066735822122064cd6d1e9e7b753bdf64bca9a6006977b613876d3694943e210b1593bf2d1ce064736f6c63430008070033",
  "devdoc": {
    "kind": "dev",
    "methods": {
      "approve(address,uint256)": {
        "details": "See {IERC721-approve}."
      },
      "balanceOf(address)": {
        "details": "See {IERC721-balanceOf}."
      },
      "getApproved(uint256)": {
        "details": "See {IERC721-getApproved}."
      },
      "isApprovedForAll(address,address)": {
        "details": "See {IERC721-isApprovedForAll}."
      },
      "name()": {
        "details": "See {IERC721Metadata-name}."
      },
      "ownerOf(uint256)": {
        "details": "See {IERC721-ownerOf}."
      },
      "safeTransferFrom(address,address,uint256)": {
        "details": "See {IERC721-safeTransferFrom}."
      },
      "safeTransferFrom(address,address,uint256,bytes)": {
        "details": "See {IERC721-safeTransferFrom}."
      },
      "setApprovalForAll(address,bool)": {
        "details": "See {IERC721-setApprovalForAll}."
      },
      "supportsInterface(bytes4)": {
        "details": "See {IERC165-supportsInterface}."
      },
      "symbol()": {
        "details": "See {IERC721Metadata-symbol}."
      },
      "tokenURI(uint256)": {
        "details": "See {IERC721Metadata-tokenURI}."
      },
      "transferFrom(address,address,uint256)": {
        "details": "See {IERC721-transferFrom}."
      }
    },
    "version": 1
  },
  "userdoc": {
    "kind": "user",
    "methods": {},
    "version": 1
  },
  "storageLayout": {
    "storage": [
      {
        "astId": 25,
        "contract": "contracts/MyNFT.sol:MyNFT",
        "label": "_name",
        "offset": 0,
        "slot": "0",
        "type": "t_string_storage"
      },
      {
        "astId": 27,
        "contract": "contracts/MyNFT.sol:MyNFT",
        "label": "_symbol",
        "offset": 0,
        "slot": "1",
        "type": "t_string_storage"
      },
      {
        "astId": 31,
        "contract": "contracts/MyNFT.sol:MyNFT",
        "label": "_owners",
        "offset": 0,
        "slot": "2",
        "type": "t_mapping(t_uint256,t_address)"
      },
      {
        "astId": 35,
        "contract": "contracts/MyNFT.sol:MyNFT",
        "label": "_balances",
        "offset": 0,
        "slot": "3",
        "type": "t_mapping(t_address,t_uint256)"
      },
      {
        "astId": 39,
        "contract": "contracts/MyNFT.sol:MyNFT",
        "label": "_tokenApprovals",
        "offset": 0,
        "slot": "4",
        "type": "t_mapping(t_uint256,t_address)"
      },
      {
        "astId": 45,
        "contract": "contracts/MyNFT.sol:MyNFT",
        "label": "_operatorApprovals",
        "offset": 0,
        "slot": "5",
        "type": "t_mapping(t_address,t_mapping(t_address,t_bool))"
      },
      {
        "astId": 2723,
        "contract": "contracts/MyNFT.sol:MyNFT",
        "label": "users",
        "offset": 0,
        "slot": "6",
        "type": "t_mapping(t_address,t_struct(User)2699_storage)"
      },
      {
        "astId": 2726,
        "contract": "contracts/MyNFT.sol:MyNFT",
        "label": "keys",
        "offset": 0,
        "slot": "7",
        "type": "t_array(t_address)dyn_storage"
      },
      {
        "astId": 2728,
        "contract": "contracts/MyNFT.sol:MyNFT",
        "label": "admin",
        "offset": 0,
        "slot": "8",
        "type": "t_address"
      }
    ],
    "types": {
      "t_address": {
        "encoding": "inplace",
        "label": "address",
        "numberOfBytes": "20"
      },
      "t_array(t_address)dyn_storage": {
        "base": "t_address",
        "encoding": "dynamic_array",
        "label": "address[]",
        "numberOfBytes": "32"
      },
      "t_bool": {
        "encoding": "inplace",
        "label": "bool",
        "numberOfBytes": "1"
      },
      "t_mapping(t_address,t_bool)": {
        "encoding": "mapping",
        "key": "t_address",
        "label": "mapping(address => bool)",
        "numberOfBytes": "32",
        "value": "t_bool"
      },
      "t_mapping(t_address,t_mapping(t_address,t_bool))": {
        "encoding": "mapping",
        "key": "t_address",
        "label": "mapping(address => mapping(address => bool))",
        "numberOfBytes": "32",
        "value": "t_mapping(t_address,t_bool)"
      },
      "t_mapping(t_address,t_struct(User)2699_storage)": {
        "encoding": "mapping",
        "key": "t_address",
        "label": "mapping(address => struct MyNFT.User)",
        "numberOfBytes": "32",
        "value": "t_struct(User)2699_storage"
      },
      "t_mapping(t_address,t_uint256)": {
        "encoding": "mapping",
        "key": "t_address",
        "label": "mapping(address => uint256)",
        "numberOfBytes": "32",
        "value": "t_uint256"
      },
      "t_mapping(t_uint256,t_address)": {
        "encoding": "mapping",
        "key": "t_uint256",
        "label": "mapping(uint256 => address)",
        "numberOfBytes": "32",
        "value": "t_address"
      },
      "t_string_storage": {
        "encoding": "bytes",
        "label": "string",
        "numberOfBytes": "32"
      },
      "t_struct(User)2699_storage": {
        "encoding": "inplace",
        "label": "struct MyNFT.User",
        "members": [
          {
            "astId": 2694,
            "contract": "contracts/MyNFT.sol:MyNFT",
            "label": "name",
            "offset": 0,
            "slot": "0",
            "type": "t_string_storage"
          },
          {
            "astId": 2696,
            "contract": "contracts/MyNFT.sol:MyNFT",
            "label": "aadhar",
            "offset": 0,
            "slot": "1",
            "type": "t_uint256"
          },
          {
            "astId": 2698,
            "contract": "contracts/MyNFT.sol:MyNFT",
            "label": "wallet",
            "offset": 0,
            "slot": "2",
            "type": "t_address"
          }
        ],
        "numberOfBytes": "96"
      },
      "t_uint256": {
        "encoding": "inplace",
        "label": "uint256",
        "numberOfBytes": "32"
      }
    }
  }
}